S0120000617469766964616465332E7372656334
S11300000C943E000C945B000C945B000C945B001D
S11300100C945B000C945B000C945B000C945B00F0
S11300200C945B000C945B000C945B000C945B00E0
S11300300C945B000C945B000C945B000C945B00D0
S11300400C945B000C945B000C945B000C945B00C0
S11300500C945B000C945B000C945B000C945B00B0
S11300600C945B000C945B00A600B300C000CD00B0
S1130070DA00E700F40001010E011B0111241FBE88
S1130080CFEFD8E0DEBFCDBF11E0A0E0B1E0E0EB00
S1130090F2E002C005900D92AA30B107D9F721E031
S11300A0AAE0B1E001C01D92AE30B207E1F70E94B0
S11300B073000C9456010C940000FC01908196236B
S11300C09923F1F32FEF81EE94E02150804090408A
S11300D0E1F700C000008081682381E090E011F026
S11300E080E090E00895E0910501F091060180819F
S11300F08E6F8083E0910101F091020180818E7FF7
S11301008083CAE0D0E06091000180910301909166
S113011004010E945D00892BB1F380910A01909142
S11301200B01019690930B0180930A01BE010E947A
S1130130280180930C0190930D01E82FF92FEA30E8
S1130140F10508F7EC5CFF4F0C943C01E0910701CA
S1130150F09108011082E0910701F091080180817B
S11301608E678083D0CFE0910701F091080110825F
S1130170E0910701F091080180818C608083C3CFF6
S1130180E0910701F09108011082E0910701F091DC
S113019008018081866B8083B6CFE0910701F091DE
S11301A008011082E0910701F091080180818E69B5
S11301B08083A9CFE0910701F09108011082E091BA
S11301C00701F091080180818C6C80839CCFE091C1
S11301D00701F09108011082E0910701F0910801F4
S11301E080818A6D80838FCFE0910701F0910801AF
S11301F01082E0910701F091080180818A6F808369
S113020082CFE0910701F09108011082E09107018B
S1130210F091080180818E60808375CFE0910701A1
S1130220F09108011082E0910701F09108018081AA
S11302308E6F808368CFE0910701F09108011082EE
S1130240E0910701F091080180818E6D80835BCF7E
S113025097FB072E16F4009407D077FD09D00E946F
S1130260420107FC05D03EF4909581959F4F089577
S1130270709561957F4F0895EE0FFF1F0590F491DF
S1130280E02D0994AA1BBB1B51E107C0AA1FBB1F89
S1130290A617B70710F0A61BB70B881F991F5A950E
S11302A0A9F780959095BC01CD010895F894FFCFEE
S10D02B001270026002A002B00009D
S9030000FC
