:100000000C943E000C945B000C945B000C945B0021
:100010000C945B000C945B000C945B000C945B00F4
:100020000C945B000C945B000C945B000C945B00E4
:100030000C945B000C945B000C945B000C945B00D4
:100040000C945B000C945B000C945B000C945B00C4
:100050000C945B000C945B000C945B000C945B00B4
:100060000C945B000C945B0069006C006F007200E4
:10007000750078007B007E008100840011241FBE83
:10008000CFEFD8E0DEBFCDBF11E0A0E0B1E0E6E207
:10009000F2E002C005900D92AC30B107D9F721E033
:1000A000ACE0B1E001C01D92AE30B207E1F70E94B2
:1000B0008A000C9411010C940000FC01DB019C915E
:1000C00091709C93EA30F10510F5EC5CFF4F0C94B5
:1000D000F7009E679C9308959C609C930895966B8F
:1000E0009C9308959E699C9308959C6C9C9308959D
:1000F0009A6D9C9308959A6F9C9308959E609C932B
:1001000008959E6F9C9308959E6D9C9308959E679D
:100110009C930895E0910901F0910A018081877F05
:100120008083E0910501F091060180818E6F8083CC
:10013000E0910101F091020180818E7F8083E09146
:100140000701F0910801808181708083E0910701AF
:10015000F091080180818E678083C0E0D0E00AE0E2
:1001600010E0E0910301F0910401209100019091D1
:100170000C0190930D018081822380930C019817CC
:10018000B1F32FEF80E792E0215080409040E1F7FB
:1001900000C00000E0910301F09104019081809182
:1001A0000001892380930C018111DBCF21962091DE
:1001B000070130910801CE01B8010E94E300B901A6
:1001C0000E945D00CECF97FB072E16F4009407D057
:1001D00077FD09D00E94FD0007FC05D03EF4909504
:1001E00081959F4F0895709561957F4F0895EE0F0B
:1001F000FF1F0590F491E02D0994AA1BBB1B51E150
:1002000007C0AA1FBB1FA617B70710F0A61BB70B86
:10021000881F991F5A95A9F780959095BC01CD012B
:060220000895F894FFCFE1
:0C02260001270026002A002B00C1000068
:00000001FF
