S0120000617469766964616465362E7372656331
S11300000C9434000C9449000C9449000C9449005D
S11300100C9449000C9449000C9449000C94490038
S11300200C9449000C9449000C9449000C94490028
S11300300C9449000C9449000C9449000C94490018
S11300400C9449000C9449000C9449000C94490008
S11300500C9449000C9449000C9449000C944900F8
S11300600C9449000C94490011241FBECFEFD8E032
S1130070DEBFCDBF11E0A0E0B1E0E8E1F1E002C0F5
S113008005900D92A233B107D9F70E944B000C944E
S11300908A000C94000089E190E00E9477000F2E02
S11300A0F3E2EF2EF1E0FF2EF02D00E011E0F70176
S11300B08081882339F0C4E2D1E00E9482008991D2
S11300C08111FBCFF8018081882339F0C1E0D1E0B0
S11300D00E94820089918111FBCFFFEF23E284EF1C
S11300E0F15020408040E1F700C00000E0CF9F7055
S11300F09093C5008093C400E1ECF0E080818860B7
S113010080830895E0ECF0E0908195FFFDCF80932B
S10B0110C6000895F894FFCF26
S11301184D656E736167656D207472616E736D6988
S11301287469646120636F6D207375636573736F9D
S1130138210A00536F6D65206D6573736167650AE5
S10501480000B1
S9030000FC
